{
  "contractName": "ERC721",
  "abi": [
    {
      "inputs": [],
      "stateMutability": "nonpayable",
      "type": "constructor"
    },
    {
      "anonymous": false,
      "inputs": [
        {
          "indexed": true,
          "internalType": "address",
          "name": "_owner",
          "type": "address"
        },
        {
          "indexed": true,
          "internalType": "address",
          "name": "_approved",
          "type": "address"
        },
        {
          "indexed": true,
          "internalType": "uint256",
          "name": "_tokenId",
          "type": "uint256"
        }
      ],
      "name": "Approval",
      "type": "event"
    },
    {
      "anonymous": false,
      "inputs": [
        {
          "indexed": true,
          "internalType": "address",
          "name": "from",
          "type": "address"
        },
        {
          "indexed": true,
          "internalType": "address",
          "name": "to",
          "type": "address"
        },
        {
          "indexed": true,
          "internalType": "uint256",
          "name": "tokenId",
          "type": "uint256"
        }
      ],
      "name": "Transfer",
      "type": "event"
    },
    {
      "inputs": [
        {
          "internalType": "bytes4",
          "name": "interfaceID",
          "type": "bytes4"
        }
      ],
      "name": "supportsInterface",
      "outputs": [
        {
          "internalType": "bool",
          "name": "",
          "type": "bool"
        }
      ],
      "stateMutability": "view",
      "type": "function"
    },
    {
      "inputs": [
        {
          "internalType": "address",
          "name": "_owner",
          "type": "address"
        }
      ],
      "name": "balanceOf",
      "outputs": [
        {
          "internalType": "uint256",
          "name": "",
          "type": "uint256"
        }
      ],
      "stateMutability": "view",
      "type": "function"
    },
    {
      "inputs": [
        {
          "internalType": "uint256",
          "name": "_tokenId",
          "type": "uint256"
        }
      ],
      "name": "ownerOf",
      "outputs": [
        {
          "internalType": "address",
          "name": "",
          "type": "address"
        }
      ],
      "stateMutability": "view",
      "type": "function"
    },
    {
      "inputs": [
        {
          "internalType": "address",
          "name": "_from",
          "type": "address"
        },
        {
          "internalType": "address",
          "name": "_to",
          "type": "address"
        },
        {
          "internalType": "uint256",
          "name": "_tokenId",
          "type": "uint256"
        }
      ],
      "name": "transferFrom",
      "outputs": [],
      "stateMutability": "nonpayable",
      "type": "function"
    },
    {
      "inputs": [
        {
          "internalType": "address",
          "name": "_to",
          "type": "address"
        },
        {
          "internalType": "uint256",
          "name": "tokenId",
          "type": "uint256"
        }
      ],
      "name": "approve",
      "outputs": [],
      "stateMutability": "nonpayable",
      "type": "function"
    }
  ],
  "bytecode": "0x608060405234801561001057600080fd5b506100407f75e79be6cc7b0fa1c9ef93c49173e275135de3af55610b234fd35ad9f20df3816100b860201b60201c565b6100b37f0e60019febab7c17be95ca129aaa3424c3f52327a7b3badaff87fa2c48f39db67f3a6eb71757dfc6e784c1459d26270140c2c147d95ca985c80026fc5301c3eca17f78415365757d55d827df8780401941e841ac4a420bab5dc9e5dccaabfb7dea9818186100b860201b60201c565b610209565b63ffffffff60e01b817bffffffffffffffffffffffffffffffffffffffffffffffffffffffff191603610120576040517f08c379a0000000000000000000000000000000000000000000000000000000008152600401610117906101e9565b60405180910390fd5b6001600080837bffffffffffffffffffffffffffffffffffffffffffffffffffffffff19167bffffffffffffffffffffffffffffffffffffffffffffffffffffffff1916815260200190815260200160002060006101000a81548160ff02191690831515021790555050565b600082825260208201905092915050565b7f496e76616c696420696e74657266616365207265717565737400000000000000600082015250565b60006101d360198361018c565b91506101de8261019d565b602082019050919050565b60006020820190508181036000830152610202816101c6565b9050919050565b610ef6806102186000396000f3fe608060405234801561001057600080fd5b50600436106100575760003560e01c806301ffc9a71461005c578063095ea7b31461008c57806323b872dd146100a85780636352211e146100c457806370a08231146100f4575b600080fd5b610076600480360381019061007191906108ea565b610124565b6040516100839190610932565b60405180910390f35b6100a660048036038101906100a191906109e1565b61018b565b005b6100c260048036038101906100bd9190610a21565b610326565b005b6100de60048036038101906100d99190610a74565b610349565b6040516100eb9190610ab0565b60405180910390f35b61010e60048036038101906101099190610acb565b6103fa565b60405161011b9190610b07565b60405180910390f35b6000806000837bffffffffffffffffffffffffffffffffffffffffffffffffffffffff19167bffffffffffffffffffffffffffffffffffffffffffffffffffffffff1916815260200190815260200160002060009054906101000a900460ff169050919050565b600061019682610349565b90508073ffffffffffffffffffffffffffffffffffffffff168373ffffffffffffffffffffffffffffffffffffffff1603610206576040517f08c379a00000000000000000000000000000000000000000000000000000000081526004016101fd90610ba5565b60405180910390fd5b8073ffffffffffffffffffffffffffffffffffffffff163373ffffffffffffffffffffffffffffffffffffffff1614610274576040517f08c379a000000000000000000000000000000000000000000000000000000000815260040161026b90610c11565b60405180910390fd5b826003600084815260200190815260200160002060006101000a81548173ffffffffffffffffffffffffffffffffffffffff021916908373ffffffffffffffffffffffffffffffffffffffff160217905550818373ffffffffffffffffffffffffffffffffffffffff168273ffffffffffffffffffffffffffffffffffffffff167f8c5be1e5ebec7d5bd14f71427d1e84f3dd0314c0f7b2291e5b200ac8c7c3b92560405160405180910390a4505050565b61033033826104b8565b61033957600080fd5b610344838383610547565b505050565b6000806001600084815260200190815260200160002060009054906101000a900473ffffffffffffffffffffffffffffffffffffffff169050600073ffffffffffffffffffffffffffffffffffffffff168173ffffffffffffffffffffffffffffffffffffffff16036103f1576040517f08c379a00000000000000000000000000000000000000000000000000000000081526004016103e890610c7d565b60405180910390fd5b80915050919050565b60008073ffffffffffffffffffffffffffffffffffffffff168273ffffffffffffffffffffffffffffffffffffffff160361046a576040517f08c379a000000000000000000000000000000000000000000000000000000000815260040161046190610c7d565b60405180910390fd5b6104b1600260008473ffffffffffffffffffffffffffffffffffffffff1673ffffffffffffffffffffffffffffffffffffffff16815260200190815260200160002061076c565b9050919050565b60006104c38261077a565b610502576040517f08c379a00000000000000000000000000000000000000000000000000000000081526004016104f990610ce9565b60405180910390fd5b600061050d83610349565b90508073ffffffffffffffffffffffffffffffffffffffff168473ffffffffffffffffffffffffffffffffffffffff161491505092915050565b600073ffffffffffffffffffffffffffffffffffffffff168273ffffffffffffffffffffffffffffffffffffffff16036105b6576040517f08c379a00000000000000000000000000000000000000000000000000000000081526004016105ad90610ba5565b60405180910390fd5b8273ffffffffffffffffffffffffffffffffffffffff166105d682610349565b73ffffffffffffffffffffffffffffffffffffffff161461062c576040517f08c379a000000000000000000000000000000000000000000000000000000000815260040161062390610d7b565b60405180910390fd5b610673600260008573ffffffffffffffffffffffffffffffffffffffff1673ffffffffffffffffffffffffffffffffffffffff1681526020019081526020016000206107ec565b6106ba600260008473ffffffffffffffffffffffffffffffffffffffff1673ffffffffffffffffffffffffffffffffffffffff16815260200190815260200160002061080f565b816001600083815260200190815260200160002060006101000a81548173ffffffffffffffffffffffffffffffffffffffff021916908373ffffffffffffffffffffffffffffffffffffffff160217905550808273ffffffffffffffffffffffffffffffffffffffff168473ffffffffffffffffffffffffffffffffffffffff167fddf252ad1be2c89b69c2b068fc378daa952ba7f163c4a11628f55a4df523b3ef60405160405180910390a4505050565b600081600001549050919050565b6000806001600084815260200190815260200160002060009054906101000a900473ffffffffffffffffffffffffffffffffffffffff169050600073ffffffffffffffffffffffffffffffffffffffff168173ffffffffffffffffffffffffffffffffffffffff161415915050919050565b6108046001826000015461082e90919063ffffffff16565b816000018190555050565b60018160000160008282546108249190610dca565b9250508190555050565b600082821115610873576040517f08c379a000000000000000000000000000000000000000000000000000000000815260040161086a90610e6c565b60405180910390fd5b600082846108819190610e8c565b90508091505092915050565b600080fd5b60007fffffffff0000000000000000000000000000000000000000000000000000000082169050919050565b6108c781610892565b81146108d257600080fd5b50565b6000813590506108e4816108be565b92915050565b600060208284031215610900576108ff61088d565b5b600061090e848285016108d5565b91505092915050565b60008115159050919050565b61092c81610917565b82525050565b60006020820190506109476000830184610923565b92915050565b600073ffffffffffffffffffffffffffffffffffffffff82169050919050565b60006109788261094d565b9050919050565b6109888161096d565b811461099357600080fd5b50565b6000813590506109a58161097f565b92915050565b6000819050919050565b6109be816109ab565b81146109c957600080fd5b50565b6000813590506109db816109b5565b92915050565b600080604083850312156109f8576109f761088d565b5b6000610a0685828601610996565b9250506020610a17858286016109cc565b9150509250929050565b600080600060608486031215610a3a57610a3961088d565b5b6000610a4886828701610996565b9350506020610a5986828701610996565b9250506040610a6a868287016109cc565b9150509250925092565b600060208284031215610a8a57610a8961088d565b5b6000610a98848285016109cc565b91505092915050565b610aaa8161096d565b82525050565b6000602082019050610ac56000830184610aa1565b92915050565b600060208284031215610ae157610ae061088d565b5b6000610aef84828501610996565b91505092915050565b610b01816109ab565b82525050565b6000602082019050610b1c6000830184610af8565b92915050565b600082825260208201905092915050565b7f4572726f72202d20617070726f76616c20746f2063757272656e74206f776e6560008201527f7200000000000000000000000000000000000000000000000000000000000000602082015250565b6000610b8f602183610b22565b9150610b9a82610b33565b604082019050919050565b60006020820190508181036000830152610bbe81610b82565b9050919050565b7f43757272656e742063616c6c6572206d757374206265206f776e657200000000600082015250565b6000610bfb601c83610b22565b9150610c0682610bc5565b602082019050919050565b60006020820190508181036000830152610c2a81610bee565b9050919050565b7f41646472657373206973207a65726f0000000000000000000000000000000000600082015250565b6000610c67600f83610b22565b9150610c7282610c31565b602082019050919050565b60006020820190508181036000830152610c9681610c5a565b9050919050565b7f746f6b656e20646f6573206e6f74206578697374000000000000000000000000600082015250565b6000610cd3601483610b22565b9150610cde82610c9d565b602082019050919050565b60006020820190508181036000830152610d0281610cc6565b9050919050565b7f547279696e6720746f207472616e73666572206120746f6b656e20746f20616e60008201527f2061646472657373206469666572656e7420746f206f776e6572000000000000602082015250565b6000610d65603a83610b22565b9150610d7082610d09565b604082019050919050565b60006020820190508181036000830152610d9481610d58565b9050919050565b7f4e487b7100000000000000000000000000000000000000000000000000000000600052601160045260246000fd5b6000610dd5826109ab565b9150610de0836109ab565b9250827fffffffffffffffffffffffffffffffffffffffffffffffffffffffffffffffff03821115610e1557610e14610d9b565b5b828201905092915050565b7f536166654d61746820737562737472616374696f6e206f766572666c6f770000600082015250565b6000610e56601e83610b22565b9150610e6182610e20565b602082019050919050565b60006020820190508181036000830152610e8581610e49565b9050919050565b6000610e97826109ab565b9150610ea2836109ab565b925082821015610eb557610eb4610d9b565b5b82820390509291505056fea2646970667358221220f6abd783e709de15668ef78d81363fc50320d9db63a1698d03407dc5a919f39d64736f6c634300080f0033",
  "immutableReferences": {},
  "source": "// SPDX-License-Identifier: MIT\n\npragma solidity ^0.8.15;\n\nimport './ERC165.sol';\nimport './interfaces/IERC721.sol';\nimport './libraries/Counters.sol';\n\n\n/*\n\n    Crear fncion para mintear\n    1. NFT debe apuntar a una direccion \n    2. Mantener registro de los id de los tokens \n    3. Mentener registro del dueno (direccion) del token id\n    4. Cuantos tokens tiene un dueno (direccion)\n    5. Crear un evento que emita un registro de transferencia - direccion del contrato, deonde se mintea, el id\n\n*/\n\ncontract ERC721 is ERC165, IERC721 {\n\n    using SafeMath for uint256;\n    using Counters for Counters.Counter;\n\n    mapping(uint256 => address) private _tokenOwner;\n\n    mapping(address => Counters.Counter) private _ownedTokensCount;\n\n    mapping(uint256 => address) private _tokenApprovals;\n\n    constructor() {\n        _registerInterface(bytes4(keccak256('balanceOf(bytes)')^\n        keccak256('ownerOf(bytes4)')^keccak256('transerFrom(bytes4)')));\n    }\n\n\n    function balanceOf(address _owner) public override view returns (uint256){\n\n        require(_owner != address(0), 'Address is zero');\n        return _ownedTokensCount[_owner].current();\n\n    }\n\n    function ownerOf(uint256 _tokenId) public override view returns (address){\n        address owner = _tokenOwner[_tokenId];\n        require(owner != address(0), 'Address is zero');\n        return owner;\n\n    }\n\n    function _exists(uint256 tokenId) internal view returns(bool) {\n        address owner = _tokenOwner[tokenId];\n        return owner != address(0);\n    }\n\n    function _mint(address to, uint256 tokenId) internal virtual{\n        \n        //revisar que el address no sea 0\n        require(to != address(0), 'ERC721 minting to zero address');\n\n        //tokenId no debe existir anteriromente\n        require(!_exists(tokenId), 'ERC721 already exists');\n       \n        //apuntar a direccion de dueno\n        _tokenOwner[tokenId] = to;\n        \n       //apuntar a tokens tiene ese dueno \n        _ownedTokensCount[to].increment();\n\n        emit Transfer(address(0), to, tokenId);\n    }\n\n    function _transferFrom(address _from, address _to, uint256 _tokenId) internal {\n       require(_to != address(0), 'Error - approval to current owner');\n       require(ownerOf(_tokenId) == _from, 'Trying to transfer a token to an address diferent to owner');\n\n       _ownedTokensCount[_from].decrement();\n       _ownedTokensCount[_to].increment();\n\n       _tokenOwner[_tokenId] = _to;\n\n       emit Transfer(_from, _to, _tokenId);\n    }\n\n    function transferFrom(address _from, address _to, uint256 _tokenId) override public {\n        require(isApprovedOrOwner(msg.sender, _tokenId));\n        _transferFrom(_from, _to, _tokenId);\n    }\n\n    function approve(address _to, uint256 tokenId) public {\n        address owner = ownerOf(tokenId);\n        require(_to != owner, 'Error - approval to current owner');\n        require(msg.sender == owner, 'Current caller must be owner');\n        _tokenApprovals[tokenId] = _to;\n        emit Approval(owner, _to, tokenId);\n    }\n\n    function isApprovedOrOwner(address spender, uint256 tokenId) internal view returns(bool) {\n        require(_exists(tokenId), 'token does not exist');\n        address owner = ownerOf(tokenId);\n        return(spender == owner);\n    }\n\n    \n\n}",
  "sourcePath": "/Users/madssimo/Documents/nft-marketplace/skulltown/src/contracts/ERC721.sol",
  "compiler": {
    "name": "solc",
    "version": "0.8.15+commit.e14f2714.Emscripten.clang"
  },
  "schemaVersion": "3.4.7",
  "updatedAt": "2022-09-06T01:14:08.232Z",
  "devdoc": {
    "kind": "dev",
    "methods": {},
    "version": 1
  },
  "userdoc": {
    "kind": "user",
    "methods": {},
    "version": 1
  }
}