{
  "contractName": "ERC721Connector",
  "abi": [
    {
      "inputs": [
        {
          "internalType": "string",
          "name": "name",
          "type": "string"
        },
        {
          "internalType": "string",
          "name": "symbol",
          "type": "string"
        }
      ],
      "stateMutability": "nonpayable",
      "type": "constructor"
    },
    {
      "anonymous": false,
      "inputs": [
        {
          "indexed": true,
          "internalType": "address",
          "name": "_owner",
          "type": "address"
        },
        {
          "indexed": true,
          "internalType": "address",
          "name": "_approved",
          "type": "address"
        },
        {
          "indexed": true,
          "internalType": "uint256",
          "name": "_tokenId",
          "type": "uint256"
        }
      ],
      "name": "Approval",
      "type": "event"
    },
    {
      "anonymous": false,
      "inputs": [
        {
          "indexed": true,
          "internalType": "address",
          "name": "from",
          "type": "address"
        },
        {
          "indexed": true,
          "internalType": "address",
          "name": "to",
          "type": "address"
        },
        {
          "indexed": true,
          "internalType": "uint256",
          "name": "tokenId",
          "type": "uint256"
        }
      ],
      "name": "Transfer",
      "type": "event"
    },
    {
      "inputs": [
        {
          "internalType": "address",
          "name": "_to",
          "type": "address"
        },
        {
          "internalType": "uint256",
          "name": "tokenId",
          "type": "uint256"
        }
      ],
      "name": "approve",
      "outputs": [],
      "stateMutability": "nonpayable",
      "type": "function"
    },
    {
      "inputs": [
        {
          "internalType": "address",
          "name": "_owner",
          "type": "address"
        }
      ],
      "name": "balanceOf",
      "outputs": [
        {
          "internalType": "uint256",
          "name": "",
          "type": "uint256"
        }
      ],
      "stateMutability": "view",
      "type": "function"
    },
    {
      "inputs": [],
      "name": "name",
      "outputs": [
        {
          "internalType": "string",
          "name": "",
          "type": "string"
        }
      ],
      "stateMutability": "view",
      "type": "function"
    },
    {
      "inputs": [
        {
          "internalType": "uint256",
          "name": "_tokenId",
          "type": "uint256"
        }
      ],
      "name": "ownerOf",
      "outputs": [
        {
          "internalType": "address",
          "name": "",
          "type": "address"
        }
      ],
      "stateMutability": "view",
      "type": "function"
    },
    {
      "inputs": [],
      "name": "symbol",
      "outputs": [
        {
          "internalType": "string",
          "name": "",
          "type": "string"
        }
      ],
      "stateMutability": "view",
      "type": "function"
    },
    {
      "inputs": [
        {
          "internalType": "uint256",
          "name": "index",
          "type": "uint256"
        }
      ],
      "name": "tokenByIndex",
      "outputs": [
        {
          "internalType": "uint256",
          "name": "",
          "type": "uint256"
        }
      ],
      "stateMutability": "view",
      "type": "function"
    },
    {
      "inputs": [
        {
          "internalType": "address",
          "name": "owner",
          "type": "address"
        },
        {
          "internalType": "uint256",
          "name": "index",
          "type": "uint256"
        }
      ],
      "name": "tokenOfOwnerByIndex",
      "outputs": [
        {
          "internalType": "uint256",
          "name": "",
          "type": "uint256"
        }
      ],
      "stateMutability": "view",
      "type": "function"
    },
    {
      "inputs": [],
      "name": "totalSupply",
      "outputs": [
        {
          "internalType": "uint256",
          "name": "",
          "type": "uint256"
        }
      ],
      "stateMutability": "view",
      "type": "function"
    },
    {
      "inputs": [
        {
          "internalType": "address",
          "name": "_from",
          "type": "address"
        },
        {
          "internalType": "address",
          "name": "_to",
          "type": "address"
        },
        {
          "internalType": "uint256",
          "name": "_tokenId",
          "type": "uint256"
        }
      ],
      "name": "transferFrom",
      "outputs": [],
      "stateMutability": "nonpayable",
      "type": "function"
    }
  ],
  "bytecode": "0x60806040523480156200001157600080fd5b50604051620018c8380380620018c8833981810160405281019062000037919062000204565b818181600090816200004a9190620004d4565b5080600190816200005c9190620004d4565b5050505050620005bb565b6000604051905090565b600080fd5b600080fd5b600080fd5b600080fd5b6000601f19601f8301169050919050565b7f4e487b7100000000000000000000000000000000000000000000000000000000600052604160045260246000fd5b620000d08262000085565b810181811067ffffffffffffffff82111715620000f257620000f162000096565b5b80604052505050565b60006200010762000067565b9050620001158282620000c5565b919050565b600067ffffffffffffffff82111562000138576200013762000096565b5b620001438262000085565b9050602081019050919050565b60005b838110156200017057808201518184015260208101905062000153565b8381111562000180576000848401525b50505050565b60006200019d62000197846200011a565b620000fb565b905082815260208101848484011115620001bc57620001bb62000080565b5b620001c984828562000150565b509392505050565b600082601f830112620001e957620001e86200007b565b5b8151620001fb84826020860162000186565b91505092915050565b600080604083850312156200021e576200021d62000071565b5b600083015167ffffffffffffffff8111156200023f576200023e62000076565b5b6200024d85828601620001d1565b925050602083015167ffffffffffffffff81111562000271576200027062000076565b5b6200027f85828601620001d1565b9150509250929050565b600081519050919050565b7f4e487b7100000000000000000000000000000000000000000000000000000000600052602260045260246000fd5b60006002820490506001821680620002dc57607f821691505b602082108103620002f257620002f162000294565b5b50919050565b60008190508160005260206000209050919050565b60006020601f8301049050919050565b600082821b905092915050565b6000600883026200035c7fffffffffffffffffffffffffffffffffffffffffffffffffffffffffffffffff826200031d565b6200036886836200031d565b95508019841693508086168417925050509392505050565b6000819050919050565b6000819050919050565b6000620003b5620003af620003a98462000380565b6200038a565b62000380565b9050919050565b6000819050919050565b620003d18362000394565b620003e9620003e082620003bc565b8484546200032a565b825550505050565b600090565b62000400620003f1565b6200040d818484620003c6565b505050565b5b81811015620004355762000429600082620003f6565b60018101905062000413565b5050565b601f82111562000484576200044e81620002f8565b62000459846200030d565b8101602085101562000469578190505b6200048162000478856200030d565b83018262000412565b50505b505050565b600082821c905092915050565b6000620004a96000198460080262000489565b1980831691505092915050565b6000620004c4838362000496565b9150826002028217905092915050565b620004df8262000289565b67ffffffffffffffff811115620004fb57620004fa62000096565b5b620005078254620002c3565b6200051482828562000439565b600060209050601f8311600181146200054c576000841562000537578287015190505b620005438582620004b6565b865550620005b3565b601f1984166200055c86620002f8565b60005b8281101562000586578489015182556001820191506020850194506020810190506200055f565b86831015620005a65784890151620005a2601f89168262000496565b8355505b6001600288020188555050505b505050505050565b6112fd80620005cb6000396000f3fe608060405234801561001057600080fd5b50600436106100935760003560e01c80632f745c59116100665780632f745c591461010c5780634f6ccce71461013c5780636352211e1461016c57806370a082311461019c57806395d89b41146101cc57610093565b806306fdde0314610098578063095ea7b3146100b657806318160ddd146100d257806323b872dd146100f0575b600080fd5b6100a06101ea565b6040516100ad9190610bd7565b60405180910390f35b6100d060048036038101906100cb9190610c92565b61027c565b005b6100da610417565b6040516100e79190610ce1565b60405180910390f35b61010a60048036038101906101059190610cfc565b610424565b005b61012660048036038101906101219190610c92565b610447565b6040516101339190610ce1565b60405180910390f35b61015660048036038101906101519190610d4f565b6104f7565b6040516101639190610ce1565b60405180910390f35b61018660048036038101906101819190610d4f565b610568565b6040516101939190610d8b565b60405180910390f35b6101b660048036038101906101b19190610da6565b610619565b6040516101c39190610ce1565b60405180910390f35b6101d46106d7565b6040516101e19190610bd7565b60405180910390f35b6060600080546101f990610e02565b80601f016020809104026020016040519081016040528092919081815260200182805461022590610e02565b80156102725780601f1061024757610100808354040283529160200191610272565b820191906000526020600020905b81548152906001019060200180831161025557829003601f168201915b5050505050905090565b600061028782610568565b90508073ffffffffffffffffffffffffffffffffffffffff168373ffffffffffffffffffffffffffffffffffffffff16036102f7576040517f08c379a00000000000000000000000000000000000000000000000000000000081526004016102ee90610ea5565b60405180910390fd5b8073ffffffffffffffffffffffffffffffffffffffff163373ffffffffffffffffffffffffffffffffffffffff1614610365576040517f08c379a000000000000000000000000000000000000000000000000000000000815260040161035c90610f11565b60405180910390fd5b826004600084815260200190815260200160002060006101000a81548173ffffffffffffffffffffffffffffffffffffffff021916908373ffffffffffffffffffffffffffffffffffffffff160217905550818373ffffffffffffffffffffffffffffffffffffffff168273ffffffffffffffffffffffffffffffffffffffff167f8c5be1e5ebec7d5bd14f71427d1e84f3dd0314c0f7b2291e5b200ac8c7c3b92560405160405180910390a4505050565b6000600580549050905090565b61042e3382610769565b61043757600080fd5b6104428383836107f8565b505050565b600061045283610619565b8210610493576040517f08c379a000000000000000000000000000000000000000000000000000000000815260040161048a90610f7d565b60405180910390fd5b600760008473ffffffffffffffffffffffffffffffffffffffff1673ffffffffffffffffffffffffffffffffffffffff16815260200190815260200160002082815481106104e4576104e3610f9d565b5b9060005260206000200154905092915050565b6000610501610417565b8210610542576040517f08c379a000000000000000000000000000000000000000000000000000000000815260040161053990611018565b60405180910390fd5b6005828154811061055657610555610f9d565b5b90600052602060002001549050919050565b6000806002600084815260200190815260200160002060009054906101000a900473ffffffffffffffffffffffffffffffffffffffff169050600073ffffffffffffffffffffffffffffffffffffffff168173ffffffffffffffffffffffffffffffffffffffff1603610610576040517f08c379a000000000000000000000000000000000000000000000000000000000815260040161060790611084565b60405180910390fd5b80915050919050565b60008073ffffffffffffffffffffffffffffffffffffffff168273ffffffffffffffffffffffffffffffffffffffff1603610689576040517f08c379a000000000000000000000000000000000000000000000000000000000815260040161068090611084565b60405180910390fd5b6106d0600360008473ffffffffffffffffffffffffffffffffffffffff1673ffffffffffffffffffffffffffffffffffffffff168152602001908152602001600020610a1d565b9050919050565b6060600180546106e690610e02565b80601f016020809104026020016040519081016040528092919081815260200182805461071290610e02565b801561075f5780601f106107345761010080835404028352916020019161075f565b820191906000526020600020905b81548152906001019060200180831161074257829003601f168201915b5050505050905090565b600061077482610a2b565b6107b3576040517f08c379a00000000000000000000000000000000000000000000000000000000081526004016107aa906110f0565b60405180910390fd5b60006107be83610568565b90508073ffffffffffffffffffffffffffffffffffffffff168473ffffffffffffffffffffffffffffffffffffffff161491505092915050565b600073ffffffffffffffffffffffffffffffffffffffff168273ffffffffffffffffffffffffffffffffffffffff1603610867576040517f08c379a000000000000000000000000000000000000000000000000000000000815260040161085e90610ea5565b60405180910390fd5b8273ffffffffffffffffffffffffffffffffffffffff1661088782610568565b73ffffffffffffffffffffffffffffffffffffffff16146108dd576040517f08c379a00000000000000000000000000000000000000000000000000000000081526004016108d490611182565b60405180910390fd5b610924600360008573ffffffffffffffffffffffffffffffffffffffff1673ffffffffffffffffffffffffffffffffffffffff168152602001908152602001600020610a9d565b61096b600360008473ffffffffffffffffffffffffffffffffffffffff1673ffffffffffffffffffffffffffffffffffffffff168152602001908152602001600020610ac0565b816002600083815260200190815260200160002060006101000a81548173ffffffffffffffffffffffffffffffffffffffff021916908373ffffffffffffffffffffffffffffffffffffffff160217905550808273ffffffffffffffffffffffffffffffffffffffff168473ffffffffffffffffffffffffffffffffffffffff167fddf252ad1be2c89b69c2b068fc378daa952ba7f163c4a11628f55a4df523b3ef60405160405180910390a4505050565b600081600001549050919050565b6000806002600084815260200190815260200160002060009054906101000a900473ffffffffffffffffffffffffffffffffffffffff169050600073ffffffffffffffffffffffffffffffffffffffff168173ffffffffffffffffffffffffffffffffffffffff161415915050919050565b610ab560018260000154610adf90919063ffffffff16565b816000018190555050565b6001816000016000828254610ad591906111d1565b9250508190555050565b600082821115610b24576040517f08c379a0000000000000000000000000000000000000000000000000000000008152600401610b1b90611273565b60405180910390fd5b60008284610b329190611293565b90508091505092915050565b600081519050919050565b600082825260208201905092915050565b60005b83811015610b78578082015181840152602081019050610b5d565b83811115610b87576000848401525b50505050565b6000601f19601f8301169050919050565b6000610ba982610b3e565b610bb38185610b49565b9350610bc3818560208601610b5a565b610bcc81610b8d565b840191505092915050565b60006020820190508181036000830152610bf18184610b9e565b905092915050565b600080fd5b600073ffffffffffffffffffffffffffffffffffffffff82169050919050565b6000610c2982610bfe565b9050919050565b610c3981610c1e565b8114610c4457600080fd5b50565b600081359050610c5681610c30565b92915050565b6000819050919050565b610c6f81610c5c565b8114610c7a57600080fd5b50565b600081359050610c8c81610c66565b92915050565b60008060408385031215610ca957610ca8610bf9565b5b6000610cb785828601610c47565b9250506020610cc885828601610c7d565b9150509250929050565b610cdb81610c5c565b82525050565b6000602082019050610cf66000830184610cd2565b92915050565b600080600060608486031215610d1557610d14610bf9565b5b6000610d2386828701610c47565b9350506020610d3486828701610c47565b9250506040610d4586828701610c7d565b9150509250925092565b600060208284031215610d6557610d64610bf9565b5b6000610d7384828501610c7d565b91505092915050565b610d8581610c1e565b82525050565b6000602082019050610da06000830184610d7c565b92915050565b600060208284031215610dbc57610dbb610bf9565b5b6000610dca84828501610c47565b91505092915050565b7f4e487b7100000000000000000000000000000000000000000000000000000000600052602260045260246000fd5b60006002820490506001821680610e1a57607f821691505b602082108103610e2d57610e2c610dd3565b5b50919050565b7f4572726f72202d20617070726f76616c20746f2063757272656e74206f776e6560008201527f7200000000000000000000000000000000000000000000000000000000000000602082015250565b6000610e8f602183610b49565b9150610e9a82610e33565b604082019050919050565b60006020820190508181036000830152610ebe81610e82565b9050919050565b7f43757272656e742063616c6c6572206d757374206265206f776e657200000000600082015250565b6000610efb601c83610b49565b9150610f0682610ec5565b602082019050919050565b60006020820190508181036000830152610f2a81610eee565b9050919050565b7f4f776e657220696e646578206f7574206f6620626f756e640000000000000000600082015250565b6000610f67601883610b49565b9150610f7282610f31565b602082019050919050565b60006020820190508181036000830152610f9681610f5a565b9050919050565b7f4e487b7100000000000000000000000000000000000000000000000000000000600052603260045260246000fd5b7f476c6f62616c20696e646578206f7574206f6620626f756e6400000000000000600082015250565b6000611002601983610b49565b915061100d82610fcc565b602082019050919050565b6000602082019050818103600083015261103181610ff5565b9050919050565b7f41646472657373206973207a65726f0000000000000000000000000000000000600082015250565b600061106e600f83610b49565b915061107982611038565b602082019050919050565b6000602082019050818103600083015261109d81611061565b9050919050565b7f746f6b656e20646f6573206e6f74206578697374000000000000000000000000600082015250565b60006110da601483610b49565b91506110e5826110a4565b602082019050919050565b60006020820190508181036000830152611109816110cd565b9050919050565b7f547279696e6720746f207472616e73666572206120746f6b656e20746f20616e60008201527f2061646472657373206469666572656e7420746f206f776e6572000000000000602082015250565b600061116c603a83610b49565b915061117782611110565b604082019050919050565b6000602082019050818103600083015261119b8161115f565b9050919050565b7f4e487b7100000000000000000000000000000000000000000000000000000000600052601160045260246000fd5b60006111dc82610c5c565b91506111e783610c5c565b9250827fffffffffffffffffffffffffffffffffffffffffffffffffffffffffffffffff0382111561121c5761121b6111a2565b5b828201905092915050565b7f536166654d61746820737562737472616374696f6e206f766572666c6f770000600082015250565b600061125d601e83610b49565b915061126882611227565b602082019050919050565b6000602082019050818103600083015261128c81611250565b9050919050565b600061129e82610c5c565b91506112a983610c5c565b9250828210156112bc576112bb6111a2565b5b82820390509291505056fea26469706673582212204bf27b2583fd58b6c9730f47cc076334677d686d4c1d6c4ccd83af0cd67621e464736f6c634300080f0033",
  "immutableReferences": {},
  "source": "// SPDX-License-Identifier: MIT\n\npragma solidity ^0.8.15;\nimport './ERC721Metadata.sol';\nimport './ERC721Enumerable.sol';\n\ncontract ERC721Connector is ERC721Metadata, ERC721Enumerable {\n\n    constructor(string memory name, string memory symbol) ERC721Metadata(name, symbol){\n\n    }\n\n}\n",
  "sourcePath": "/Users/madssimo/Documents/nft-marketplace/skulltown/src/contracts/ERC721Connector.sol",
  "compiler": {
    "name": "solc",
    "version": "0.8.15+commit.e14f2714.Emscripten.clang"
  },
  "schemaVersion": "3.4.7",
  "updatedAt": "2022-07-18T01:41:20.490Z",
  "devdoc": {
    "kind": "dev",
    "methods": {},
    "version": 1
  },
  "userdoc": {
    "kind": "user",
    "methods": {},
    "version": 1
  }
}