{
  "contractName": "ERC721",
  "abi": [
    {
      "anonymous": false,
      "inputs": [
        {
          "indexed": true,
          "internalType": "address",
          "name": "_owner",
          "type": "address"
        },
        {
          "indexed": true,
          "internalType": "address",
          "name": "_approved",
          "type": "address"
        },
        {
          "indexed": true,
          "internalType": "uint256",
          "name": "_tokenId",
          "type": "uint256"
        }
      ],
      "name": "Approval",
      "type": "event"
    },
    {
      "anonymous": false,
      "inputs": [
        {
          "indexed": true,
          "internalType": "address",
          "name": "from",
          "type": "address"
        },
        {
          "indexed": true,
          "internalType": "address",
          "name": "to",
          "type": "address"
        },
        {
          "indexed": true,
          "internalType": "uint256",
          "name": "tokenId",
          "type": "uint256"
        }
      ],
      "name": "Transfer",
      "type": "event"
    },
    {
      "inputs": [
        {
          "internalType": "address",
          "name": "_owner",
          "type": "address"
        }
      ],
      "name": "balanceOf",
      "outputs": [
        {
          "internalType": "uint256",
          "name": "",
          "type": "uint256"
        }
      ],
      "stateMutability": "view",
      "type": "function"
    },
    {
      "inputs": [
        {
          "internalType": "uint256",
          "name": "_tokenId",
          "type": "uint256"
        }
      ],
      "name": "ownerOf",
      "outputs": [
        {
          "internalType": "address",
          "name": "",
          "type": "address"
        }
      ],
      "stateMutability": "view",
      "type": "function"
    },
    {
      "inputs": [
        {
          "internalType": "address",
          "name": "_from",
          "type": "address"
        },
        {
          "internalType": "address",
          "name": "_to",
          "type": "address"
        },
        {
          "internalType": "uint256",
          "name": "_tokenId",
          "type": "uint256"
        }
      ],
      "name": "transferFrom",
      "outputs": [],
      "stateMutability": "nonpayable",
      "type": "function"
    },
    {
      "inputs": [
        {
          "internalType": "address",
          "name": "_to",
          "type": "address"
        },
        {
          "internalType": "uint256",
          "name": "tokenId",
          "type": "uint256"
        }
      ],
      "name": "approve",
      "outputs": [],
      "stateMutability": "nonpayable",
      "type": "function"
    }
  ],
  "bytecode": "0x608060405234801561001057600080fd5b50610d96806100206000396000f3fe608060405234801561001057600080fd5b506004361061004c5760003560e01c8063095ea7b31461005157806323b872dd1461006d5780636352211e1461008957806370a08231146100b9575b600080fd5b61006b60048036038101906100669190610881565b6100e9565b005b610087600480360381019061008291906108c1565b610284565b005b6100a3600480360381019061009e9190610914565b6102a7565b6040516100b09190610950565b60405180910390f35b6100d360048036038101906100ce919061096b565b610357565b6040516100e091906109a7565b60405180910390f35b60006100f4826102a7565b90508073ffffffffffffffffffffffffffffffffffffffff168373ffffffffffffffffffffffffffffffffffffffff1603610164576040517f08c379a000000000000000000000000000000000000000000000000000000000815260040161015b90610a45565b60405180910390fd5b8073ffffffffffffffffffffffffffffffffffffffff163373ffffffffffffffffffffffffffffffffffffffff16146101d2576040517f08c379a00000000000000000000000000000000000000000000000000000000081526004016101c990610ab1565b60405180910390fd5b826002600084815260200190815260200160002060006101000a81548173ffffffffffffffffffffffffffffffffffffffff021916908373ffffffffffffffffffffffffffffffffffffffff160217905550818373ffffffffffffffffffffffffffffffffffffffff168273ffffffffffffffffffffffffffffffffffffffff167f8c5be1e5ebec7d5bd14f71427d1e84f3dd0314c0f7b2291e5b200ac8c7c3b92560405160405180910390a4505050565b61028e3382610415565b61029757600080fd5b6102a28383836104a4565b505050565b60008060008084815260200190815260200160002060009054906101000a900473ffffffffffffffffffffffffffffffffffffffff169050600073ffffffffffffffffffffffffffffffffffffffff168173ffffffffffffffffffffffffffffffffffffffff160361034e576040517f08c379a000000000000000000000000000000000000000000000000000000000815260040161034590610b1d565b60405180910390fd5b80915050919050565b60008073ffffffffffffffffffffffffffffffffffffffff168273ffffffffffffffffffffffffffffffffffffffff16036103c7576040517f08c379a00000000000000000000000000000000000000000000000000000000081526004016103be90610b1d565b60405180910390fd5b61040e600160008473ffffffffffffffffffffffffffffffffffffffff1673ffffffffffffffffffffffffffffffffffffffff1681526020019081526020016000206106c8565b9050919050565b6000610420826106d6565b61045f576040517f08c379a000000000000000000000000000000000000000000000000000000000815260040161045690610b89565b60405180910390fd5b600061046a836102a7565b90508073ffffffffffffffffffffffffffffffffffffffff168473ffffffffffffffffffffffffffffffffffffffff161491505092915050565b600073ffffffffffffffffffffffffffffffffffffffff168273ffffffffffffffffffffffffffffffffffffffff1603610513576040517f08c379a000000000000000000000000000000000000000000000000000000000815260040161050a90610a45565b60405180910390fd5b8273ffffffffffffffffffffffffffffffffffffffff16610533826102a7565b73ffffffffffffffffffffffffffffffffffffffff1614610589576040517f08c379a000000000000000000000000000000000000000000000000000000000815260040161058090610c1b565b60405180910390fd5b6105d0600160008573ffffffffffffffffffffffffffffffffffffffff1673ffffffffffffffffffffffffffffffffffffffff168152602001908152602001600020610747565b610617600160008473ffffffffffffffffffffffffffffffffffffffff1673ffffffffffffffffffffffffffffffffffffffff16815260200190815260200160002061076a565b8160008083815260200190815260200160002060006101000a81548173ffffffffffffffffffffffffffffffffffffffff021916908373ffffffffffffffffffffffffffffffffffffffff160217905550808273ffffffffffffffffffffffffffffffffffffffff168473ffffffffffffffffffffffffffffffffffffffff167fddf252ad1be2c89b69c2b068fc378daa952ba7f163c4a11628f55a4df523b3ef60405160405180910390a4505050565b600081600001549050919050565b60008060008084815260200190815260200160002060009054906101000a900473ffffffffffffffffffffffffffffffffffffffff169050600073ffffffffffffffffffffffffffffffffffffffff168173ffffffffffffffffffffffffffffffffffffffff161415915050919050565b61075f6001826000015461078990919063ffffffff16565b816000018190555050565b600181600001600082825461077f9190610c6a565b9250508190555050565b6000828211156107ce576040517f08c379a00000000000000000000000000000000000000000000000000000000081526004016107c590610d0c565b60405180910390fd5b600082846107dc9190610d2c565b90508091505092915050565b600080fd5b600073ffffffffffffffffffffffffffffffffffffffff82169050919050565b6000610818826107ed565b9050919050565b6108288161080d565b811461083357600080fd5b50565b6000813590506108458161081f565b92915050565b6000819050919050565b61085e8161084b565b811461086957600080fd5b50565b60008135905061087b81610855565b92915050565b60008060408385031215610898576108976107e8565b5b60006108a685828601610836565b92505060206108b78582860161086c565b9150509250929050565b6000806000606084860312156108da576108d96107e8565b5b60006108e886828701610836565b93505060206108f986828701610836565b925050604061090a8682870161086c565b9150509250925092565b60006020828403121561092a576109296107e8565b5b60006109388482850161086c565b91505092915050565b61094a8161080d565b82525050565b60006020820190506109656000830184610941565b92915050565b600060208284031215610981576109806107e8565b5b600061098f84828501610836565b91505092915050565b6109a18161084b565b82525050565b60006020820190506109bc6000830184610998565b92915050565b600082825260208201905092915050565b7f4572726f72202d20617070726f76616c20746f2063757272656e74206f776e6560008201527f7200000000000000000000000000000000000000000000000000000000000000602082015250565b6000610a2f6021836109c2565b9150610a3a826109d3565b604082019050919050565b60006020820190508181036000830152610a5e81610a22565b9050919050565b7f43757272656e742063616c6c6572206d757374206265206f776e657200000000600082015250565b6000610a9b601c836109c2565b9150610aa682610a65565b602082019050919050565b60006020820190508181036000830152610aca81610a8e565b9050919050565b7f41646472657373206973207a65726f0000000000000000000000000000000000600082015250565b6000610b07600f836109c2565b9150610b1282610ad1565b602082019050919050565b60006020820190508181036000830152610b3681610afa565b9050919050565b7f746f6b656e20646f6573206e6f74206578697374000000000000000000000000600082015250565b6000610b736014836109c2565b9150610b7e82610b3d565b602082019050919050565b60006020820190508181036000830152610ba281610b66565b9050919050565b7f547279696e6720746f207472616e73666572206120746f6b656e20746f20616e60008201527f2061646472657373206469666572656e7420746f206f776e6572000000000000602082015250565b6000610c05603a836109c2565b9150610c1082610ba9565b604082019050919050565b60006020820190508181036000830152610c3481610bf8565b9050919050565b7f4e487b7100000000000000000000000000000000000000000000000000000000600052601160045260246000fd5b6000610c758261084b565b9150610c808361084b565b9250827fffffffffffffffffffffffffffffffffffffffffffffffffffffffffffffffff03821115610cb557610cb4610c3b565b5b828201905092915050565b7f536166654d61746820737562737472616374696f6e206f766572666c6f770000600082015250565b6000610cf6601e836109c2565b9150610d0182610cc0565b602082019050919050565b60006020820190508181036000830152610d2581610ce9565b9050919050565b6000610d378261084b565b9150610d428361084b565b925082821015610d5557610d54610c3b565b5b82820390509291505056fea2646970667358221220361a1341d2712c2f9f7b0fd87830126b7564b488b9296d15d57b253324487cad64736f6c634300080f0033",
  "immutableReferences": {},
  "source": "// SPDX-License-Identifier: MIT\n\npragma solidity ^0.8.15;\n\nimport './interfaces/IERC721.sol';\nimport './libraries/Counters.sol';\n\n\n/*\n\n    Crear fncion para mintear\n    1. NFT debe apuntar a una direccion \n    2. Mantener registro de los id de los tokens \n    3. Mentener registro del dueno (direccion) del token id\n    4. Cuantos tokens tiene un dueno (direccion)\n    5. Crear un evento que emita un registro de transferencia - direccion del contrato, deonde se mintea, el id\n\n*/\n\ncontract ERC721 is IERC721 {\n\n    using SafeMath for uint256;\n    using Counters for Counters.Counter;\n\n    mapping(uint256 => address) private _tokenOwner;\n\n    mapping(address => Counters.Counter) private _ownedTokensCount;\n\n    mapping(uint256 => address) private _tokenApprovals;\n\n    function balanceOf(address _owner) public view returns (uint256){\n\n        require(_owner != address(0), 'Address is zero');\n        return _ownedTokensCount[_owner].current();\n\n    }\n\n    function ownerOf(uint256 _tokenId) public view returns (address){\n        address owner = _tokenOwner[_tokenId];\n        require(owner != address(0), 'Address is zero');\n        return owner;\n\n    }\n\n    function _exists(uint256 tokenId) internal view returns(bool) {\n        address owner = _tokenOwner[tokenId];\n        return owner != address(0);\n    }\n\n    function _mint(address to, uint256 tokenId) internal virtual{\n        \n        //revisar que el address no sea 0\n        require(to != address(0), 'ERC721 minting to zero address');\n\n        //tokenId no debe existir anteriromente\n        require(!_exists(tokenId), 'ERC721 already exists');\n       \n        //apuntar a direccion de dueno\n        _tokenOwner[tokenId] = to;\n        \n       //apuntar a tokens tiene ese dueno \n        _ownedTokensCount[to].increment();\n\n        emit Transfer(address(0), to, tokenId);\n    }\n\n    function _transferFrom(address _from, address _to, uint256 _tokenId) internal {\n       require(_to != address(0), 'Error - approval to current owner');\n       require(ownerOf(_tokenId) == _from, 'Trying to transfer a token to an address diferent to owner');\n\n       _ownedTokensCount[_from].decrement();\n       _ownedTokensCount[_to].increment();\n\n       _tokenOwner[_tokenId] = _to;\n\n       emit Transfer(_from, _to, _tokenId);\n    }\n\n    function transferFrom(address _from, address _to, uint256 _tokenId) public {\n        require(isApprovedOrOwner(msg.sender, _tokenId));\n        _transferFrom(_from, _to, _tokenId);\n    }\n\n    function approve(address _to, uint256 tokenId) public {\n        address owner = ownerOf(tokenId);\n        require(_to != owner, 'Error - approval to current owner');\n        require(msg.sender == owner, 'Current caller must be owner');\n        _tokenApprovals[tokenId] = _to;\n        emit Approval(owner, _to, tokenId);\n    }\n\n    function isApprovedOrOwner(address spender, uint256 tokenId) internal view returns(bool) {\n        require(_exists(tokenId), 'token does not exist');\n        address owner = ownerOf(tokenId);\n        return(spender == owner);\n    }\n\n    \n\n}",
  "sourcePath": "/Users/madssimo/Documents/nft-marketplace/skulltown/src/contracts/ERC721.sol",
  "compiler": {
    "name": "solc",
    "version": "0.8.15+commit.e14f2714.Emscripten.clang"
  },
  "schemaVersion": "3.4.7",
  "updatedAt": "2022-07-18T01:41:20.485Z",
  "devdoc": {
    "kind": "dev",
    "methods": {},
    "version": 1
  },
  "userdoc": {
    "kind": "user",
    "methods": {},
    "version": 1
  }
}