{
  "contractName": "Skulltown",
  "abi": [
    {
      "inputs": [],
      "stateMutability": "nonpayable",
      "type": "constructor"
    },
    {
      "anonymous": false,
      "inputs": [
        {
          "indexed": true,
          "internalType": "address",
          "name": "from",
          "type": "address"
        },
        {
          "indexed": true,
          "internalType": "address",
          "name": "to",
          "type": "address"
        },
        {
          "indexed": true,
          "internalType": "uint256",
          "name": "tokenId",
          "type": "uint256"
        }
      ],
      "name": "Transfer",
      "type": "event"
    },
    {
      "inputs": [
        {
          "internalType": "uint256",
          "name": "",
          "type": "uint256"
        }
      ],
      "name": "SkulltownNFTS",
      "outputs": [
        {
          "internalType": "string",
          "name": "",
          "type": "string"
        }
      ],
      "stateMutability": "view",
      "type": "function",
      "constant": true
    },
    {
      "inputs": [
        {
          "internalType": "address",
          "name": "_owner",
          "type": "address"
        }
      ],
      "name": "balanceOf",
      "outputs": [
        {
          "internalType": "uint256",
          "name": "",
          "type": "uint256"
        }
      ],
      "stateMutability": "view",
      "type": "function",
      "constant": true
    },
    {
      "inputs": [],
      "name": "name",
      "outputs": [
        {
          "internalType": "string",
          "name": "",
          "type": "string"
        }
      ],
      "stateMutability": "view",
      "type": "function",
      "constant": true
    },
    {
      "inputs": [
        {
          "internalType": "uint256",
          "name": "_tokenId",
          "type": "uint256"
        }
      ],
      "name": "ownerOf",
      "outputs": [
        {
          "internalType": "address",
          "name": "",
          "type": "address"
        }
      ],
      "stateMutability": "view",
      "type": "function",
      "constant": true
    },
    {
      "inputs": [],
      "name": "symbol",
      "outputs": [
        {
          "internalType": "string",
          "name": "",
          "type": "string"
        }
      ],
      "stateMutability": "view",
      "type": "function",
      "constant": true
    },
    {
      "inputs": [
        {
          "internalType": "uint256",
          "name": "index",
          "type": "uint256"
        }
      ],
      "name": "tokenByIndex",
      "outputs": [
        {
          "internalType": "uint256",
          "name": "",
          "type": "uint256"
        }
      ],
      "stateMutability": "view",
      "type": "function",
      "constant": true
    },
    {
      "inputs": [
        {
          "internalType": "address",
          "name": "owner",
          "type": "address"
        },
        {
          "internalType": "uint256",
          "name": "index",
          "type": "uint256"
        }
      ],
      "name": "tokenOfOwnerByIndex",
      "outputs": [
        {
          "internalType": "uint256",
          "name": "",
          "type": "uint256"
        }
      ],
      "stateMutability": "view",
      "type": "function",
      "constant": true
    },
    {
      "inputs": [],
      "name": "totalSupply",
      "outputs": [
        {
          "internalType": "uint256",
          "name": "",
          "type": "uint256"
        }
      ],
      "stateMutability": "view",
      "type": "function",
      "constant": true
    },
    {
      "inputs": [
        {
          "internalType": "string",
          "name": "_skulltown",
          "type": "string"
        }
      ],
      "name": "mint",
      "outputs": [],
      "stateMutability": "nonpayable",
      "type": "function"
    }
  ],
  "bytecode": "0x60806040523480156200001157600080fd5b506040518060400160405280600981526020017f536b756c6c746f776e00000000000000000000000000000000000000000000008152506040518060400160405280600581526020017f534b4c4c540000000000000000000000000000000000000000000000000000008152508181816000908162000091919062000328565b508060019081620000a3919062000328565b50505050506200040f565b600081519050919050565b7f4e487b7100000000000000000000000000000000000000000000000000000000600052604160045260246000fd5b7f4e487b7100000000000000000000000000000000000000000000000000000000600052602260045260246000fd5b600060028204905060018216806200013057607f821691505b602082108103620001465762000145620000e8565b5b50919050565b60008190508160005260206000209050919050565b60006020601f8301049050919050565b600082821b905092915050565b600060088302620001b07fffffffffffffffffffffffffffffffffffffffffffffffffffffffffffffffff8262000171565b620001bc868362000171565b95508019841693508086168417925050509392505050565b6000819050919050565b6000819050919050565b60006200020962000203620001fd84620001d4565b620001de565b620001d4565b9050919050565b6000819050919050565b6200022583620001e8565b6200023d620002348262000210565b8484546200017e565b825550505050565b600090565b6200025462000245565b620002618184846200021a565b505050565b5b8181101562000289576200027d6000826200024a565b60018101905062000267565b5050565b601f821115620002d857620002a2816200014c565b620002ad8462000161565b81016020851015620002bd578190505b620002d5620002cc8562000161565b83018262000266565b50505b505050565b600082821c905092915050565b6000620002fd60001984600802620002dd565b1980831691505092915050565b6000620003188383620002ea565b9150826002028217905092915050565b6200033382620000ae565b67ffffffffffffffff8111156200034f576200034e620000b9565b5b6200035b825462000117565b620003688282856200028d565b600060209050601f831160018114620003a057600084156200038b578287015190505b6200039785826200030a565b86555062000407565b601f198416620003b0866200014c565b60005b82811015620003da57848901518255600182019150602085019450602081019050620003b3565b86831015620003fa5784890151620003f6601f891682620002ea565b8355505b6001600288020188555050505b505050505050565b611567806200041f6000396000f3fe608060405234801561001057600080fd5b50600436106100935760003560e01c80636352211e116100665780636352211e1461013457806370a082311461016457806395d89b4114610194578063c962879b146101b2578063d85d3d27146101e257610093565b806306fdde031461009857806318160ddd146100b65780632f745c59146100d45780634f6ccce714610104575b600080fd5b6100a06101fe565b6040516100ad9190610b5a565b60405180910390f35b6100be610290565b6040516100cb9190610b95565b60405180910390f35b6100ee60048036038101906100e99190610c4e565b61029d565b6040516100fb9190610b95565b60405180910390f35b61011e60048036038101906101199190610c8e565b61034d565b60405161012b9190610b95565b60405180910390f35b61014e60048036038101906101499190610c8e565b6103be565b60405161015b9190610cca565b60405180910390f35b61017e60048036038101906101799190610ce5565b61046f565b60405161018b9190610b95565b60405180910390f35b61019c610526565b6040516101a99190610b5a565b60405180910390f35b6101cc60048036038101906101c79190610c8e565b6105b8565b6040516101d99190610b5a565b60405180910390f35b6101fc60048036038101906101f79190610e47565b610664565b005b60606000805461020d90610ebf565b80601f016020809104026020016040519081016040528092919081815260200182805461023990610ebf565b80156102865780601f1061025b57610100808354040283529160200191610286565b820191906000526020600020905b81548152906001019060200180831161026957829003601f168201915b5050505050905090565b6000600480549050905090565b60006102a88361046f565b82106102e9576040517f08c379a00000000000000000000000000000000000000000000000000000000081526004016102e090610f3c565b60405180910390fd5b600660008473ffffffffffffffffffffffffffffffffffffffff1673ffffffffffffffffffffffffffffffffffffffff168152602001908152602001600020828154811061033a57610339610f5c565b5b9060005260206000200154905092915050565b6000610357610290565b8210610398576040517f08c379a000000000000000000000000000000000000000000000000000000000815260040161038f90610fd7565b60405180910390fd5b600482815481106103ac576103ab610f5c565b5b90600052602060002001549050919050565b6000806002600084815260200190815260200160002060009054906101000a900473ffffffffffffffffffffffffffffffffffffffff169050600073ffffffffffffffffffffffffffffffffffffffff168173ffffffffffffffffffffffffffffffffffffffff1603610466576040517f08c379a000000000000000000000000000000000000000000000000000000000815260040161045d90611043565b60405180910390fd5b80915050919050565b60008073ffffffffffffffffffffffffffffffffffffffff168273ffffffffffffffffffffffffffffffffffffffff16036104df576040517f08c379a00000000000000000000000000000000000000000000000000000000081526004016104d690611043565b60405180910390fd5b600360008373ffffffffffffffffffffffffffffffffffffffff1673ffffffffffffffffffffffffffffffffffffffff168152602001908152602001600020549050919050565b60606001805461053590610ebf565b80601f016020809104026020016040519081016040528092919081815260200182805461056190610ebf565b80156105ae5780601f10610583576101008083540402835291602001916105ae565b820191906000526020600020905b81548152906001019060200180831161059157829003601f168201915b5050505050905090565b600881815481106105c857600080fd5b9060005260206000200160009150905080546105e390610ebf565b80601f016020809104026020016040519081016040528092919081815260200182805461060f90610ebf565b801561065c5780601f106106315761010080835404028352916020019161065c565b820191906000526020600020905b81548152906001019060200180831161063f57829003601f168201915b505050505081565b600981604051610674919061109f565b908152602001604051809103902060009054906101000a900460ff16156106d0576040517f08c379a00000000000000000000000000000000000000000000000000000000081526004016106c790611102565b60405180910390fd5b60088190806001815401808255809150506001900390600052602060002001600090919091909150908161070491906112ce565b506000600160088054905061071991906113cf565b90506107253382610760565b6001600983604051610737919061109f565b908152602001604051809103902060006101000a81548160ff0219169083151502179055505050565b61076a8282610781565b6107748282610942565b61077d81610a06565b5050565b600073ffffffffffffffffffffffffffffffffffffffff168273ffffffffffffffffffffffffffffffffffffffff16036107f0576040517f08c379a00000000000000000000000000000000000000000000000000000000081526004016107e79061144f565b60405180910390fd5b6107f981610a4f565b15610839576040517f08c379a0000000000000000000000000000000000000000000000000000000008152600401610830906114bb565b60405180910390fd5b816002600083815260200190815260200160002060006101000a81548173ffffffffffffffffffffffffffffffffffffffff021916908373ffffffffffffffffffffffffffffffffffffffff1602179055506001600360008473ffffffffffffffffffffffffffffffffffffffff1673ffffffffffffffffffffffffffffffffffffffff16815260200190815260200160002060008282546108db91906114db565b92505081905550808273ffffffffffffffffffffffffffffffffffffffff16600073ffffffffffffffffffffffffffffffffffffffff167fddf252ad1be2c89b69c2b068fc378daa952ba7f163c4a11628f55a4df523b3ef60405160405180910390a45050565b600660008373ffffffffffffffffffffffffffffffffffffffff1673ffffffffffffffffffffffffffffffffffffffff168152602001908152602001600020805490506007600083815260200190815260200160002081905550600660008373ffffffffffffffffffffffffffffffffffffffff1673ffffffffffffffffffffffffffffffffffffffff1681526020019081526020016000208190806001815401808255809150506001900390600052602060002001600090919091909150555050565b6004805490506005600083815260200190815260200160002081905550600481908060018154018082558091505060019003906000526020600020016000909190919091505550565b6000806002600084815260200190815260200160002060009054906101000a900473ffffffffffffffffffffffffffffffffffffffff169050600073ffffffffffffffffffffffffffffffffffffffff168173ffffffffffffffffffffffffffffffffffffffff161415915050919050565b600081519050919050565b600082825260208201905092915050565b60005b83811015610afb578082015181840152602081019050610ae0565b83811115610b0a576000848401525b50505050565b6000601f19601f8301169050919050565b6000610b2c82610ac1565b610b368185610acc565b9350610b46818560208601610add565b610b4f81610b10565b840191505092915050565b60006020820190508181036000830152610b748184610b21565b905092915050565b6000819050919050565b610b8f81610b7c565b82525050565b6000602082019050610baa6000830184610b86565b92915050565b6000604051905090565b600080fd5b600080fd5b600073ffffffffffffffffffffffffffffffffffffffff82169050919050565b6000610bef82610bc4565b9050919050565b610bff81610be4565b8114610c0a57600080fd5b50565b600081359050610c1c81610bf6565b92915050565b610c2b81610b7c565b8114610c3657600080fd5b50565b600081359050610c4881610c22565b92915050565b60008060408385031215610c6557610c64610bba565b5b6000610c7385828601610c0d565b9250506020610c8485828601610c39565b9150509250929050565b600060208284031215610ca457610ca3610bba565b5b6000610cb284828501610c39565b91505092915050565b610cc481610be4565b82525050565b6000602082019050610cdf6000830184610cbb565b92915050565b600060208284031215610cfb57610cfa610bba565b5b6000610d0984828501610c0d565b91505092915050565b600080fd5b600080fd5b7f4e487b7100000000000000000000000000000000000000000000000000000000600052604160045260246000fd5b610d5482610b10565b810181811067ffffffffffffffff82111715610d7357610d72610d1c565b5b80604052505050565b6000610d86610bb0565b9050610d928282610d4b565b919050565b600067ffffffffffffffff821115610db257610db1610d1c565b5b610dbb82610b10565b9050602081019050919050565b82818337600083830152505050565b6000610dea610de584610d97565b610d7c565b905082815260208101848484011115610e0657610e05610d17565b5b610e11848285610dc8565b509392505050565b600082601f830112610e2e57610e2d610d12565b5b8135610e3e848260208601610dd7565b91505092915050565b600060208284031215610e5d57610e5c610bba565b5b600082013567ffffffffffffffff811115610e7b57610e7a610bbf565b5b610e8784828501610e19565b91505092915050565b7f4e487b7100000000000000000000000000000000000000000000000000000000600052602260045260246000fd5b60006002820490506001821680610ed757607f821691505b602082108103610eea57610ee9610e90565b5b50919050565b7f4f776e657220696e646578206f7574206f6620626f756e640000000000000000600082015250565b6000610f26601883610acc565b9150610f3182610ef0565b602082019050919050565b60006020820190508181036000830152610f5581610f19565b9050919050565b7f4e487b7100000000000000000000000000000000000000000000000000000000600052603260045260246000fd5b7f476c6f62616c20696e646578206f7574206f6620626f756e6400000000000000600082015250565b6000610fc1601983610acc565b9150610fcc82610f8b565b602082019050919050565b60006020820190508181036000830152610ff081610fb4565b9050919050565b7f41646472657373206973207a65726f0000000000000000000000000000000000600082015250565b600061102d600f83610acc565b915061103882610ff7565b602082019050919050565b6000602082019050818103600083015261105c81611020565b9050919050565b600081905092915050565b600061107982610ac1565b6110838185611063565b9350611093818560208601610add565b80840191505092915050565b60006110ab828461106e565b915081905092915050565b7f4572726f72202d20746f6b656e20616c72656164792065786973747300000000600082015250565b60006110ec601c83610acc565b91506110f7826110b6565b602082019050919050565b6000602082019050818103600083015261111b816110df565b9050919050565b60008190508160005260206000209050919050565b60006020601f8301049050919050565b600082821b905092915050565b6000600883026111847fffffffffffffffffffffffffffffffffffffffffffffffffffffffffffffffff82611147565b61118e8683611147565b95508019841693508086168417925050509392505050565b6000819050919050565b60006111cb6111c66111c184610b7c565b6111a6565b610b7c565b9050919050565b6000819050919050565b6111e5836111b0565b6111f96111f1826111d2565b848454611154565b825550505050565b600090565b61120e611201565b6112198184846111dc565b505050565b5b8181101561123d57611232600082611206565b60018101905061121f565b5050565b601f8211156112825761125381611122565b61125c84611137565b8101602085101561126b578190505b61127f61127785611137565b83018261121e565b50505b505050565b600082821c905092915050565b60006112a560001984600802611287565b1980831691505092915050565b60006112be8383611294565b9150826002028217905092915050565b6112d782610ac1565b67ffffffffffffffff8111156112f0576112ef610d1c565b5b6112fa8254610ebf565b611305828285611241565b600060209050601f8311600181146113385760008415611326578287015190505b61133085826112b2565b865550611398565b601f19841661134686611122565b60005b8281101561136e57848901518255600182019150602085019450602081019050611349565b8683101561138b5784890151611387601f891682611294565b8355505b6001600288020188555050505b505050505050565b7f4e487b7100000000000000000000000000000000000000000000000000000000600052601160045260246000fd5b60006113da82610b7c565b91506113e583610b7c565b9250828210156113f8576113f76113a0565b5b828203905092915050565b7f455243373231206d696e74696e6720746f207a65726f20616464726573730000600082015250565b6000611439601e83610acc565b915061144482611403565b602082019050919050565b600060208201905081810360008301526114688161142c565b9050919050565b7f45524337323120616c7265616479206578697374730000000000000000000000600082015250565b60006114a5601583610acc565b91506114b08261146f565b602082019050919050565b600060208201905081810360008301526114d481611498565b9050919050565b60006114e682610b7c565b91506114f183610b7c565b9250827fffffffffffffffffffffffffffffffffffffffffffffffffffffffffffffffff03821115611526576115256113a0565b5b82820190509291505056fea2646970667358221220ea72ff76523c183add6c0b97a02c7f9fad3b56d3aa0afb97fbd3c68d2b971b8964736f6c634300080f0033",
  "immutableReferences": {},
  "source": "// SPDX-License-Identifier: MIT\n\npragma solidity ^0.8.15;\nimport './ERC721Connector.sol';\n\ncontract Skulltown is ERC721Connector {\n\n    //matriz para guardar nuestros nfts\n    string[] public SkulltownNFTS;\n\n    mapping(string => bool) _skulltownNFTExists; \n\n    function mint(string memory _skulltown) public {\n\n        require(!_skulltownNFTExists[_skulltown], 'Error - token already exists');\n\n        SkulltownNFTS.push(_skulltown);\n        uint _id = SkulltownNFTS.length -1;\n\n        _mint(msg.sender, _id);\n\n        _skulltownNFTExists[_skulltown] = true;\n    }\n\n\n    constructor() ERC721Connector('Skulltown', 'SKLLT') {}\n}",
  "sourcePath": "/Users/madssimo/Documents/nft-marketplace/skulltown/src/contracts/Skulltown.sol",
  "compiler": {
    "name": "solc",
    "version": "0.8.15+commit.e14f2714.Emscripten.clang"
  },
  "schemaVersion": "3.4.7",
  "updatedAt": "2022-07-17T23:36:28.827Z",
  "networkType": "ethereum",
  "devdoc": {
    "kind": "dev",
    "methods": {},
    "version": 1
  },
  "userdoc": {
    "kind": "user",
    "methods": {},
    "version": 1
  }
}