{
  "contractName": "Skulltown",
  "abi": [
    {
      "inputs": [],
      "stateMutability": "nonpayable",
      "type": "constructor"
    },
    {
      "anonymous": false,
      "inputs": [
        {
          "indexed": true,
          "internalType": "address",
          "name": "_owner",
          "type": "address"
        },
        {
          "indexed": true,
          "internalType": "address",
          "name": "_approved",
          "type": "address"
        },
        {
          "indexed": true,
          "internalType": "uint256",
          "name": "_tokenId",
          "type": "uint256"
        }
      ],
      "name": "Approval",
      "type": "event"
    },
    {
      "anonymous": false,
      "inputs": [
        {
          "indexed": true,
          "internalType": "address",
          "name": "from",
          "type": "address"
        },
        {
          "indexed": true,
          "internalType": "address",
          "name": "to",
          "type": "address"
        },
        {
          "indexed": true,
          "internalType": "uint256",
          "name": "tokenId",
          "type": "uint256"
        }
      ],
      "name": "Transfer",
      "type": "event"
    },
    {
      "inputs": [
        {
          "internalType": "uint256",
          "name": "",
          "type": "uint256"
        }
      ],
      "name": "SkulltownNFTS",
      "outputs": [
        {
          "internalType": "string",
          "name": "",
          "type": "string"
        }
      ],
      "stateMutability": "view",
      "type": "function"
    },
    {
      "inputs": [
        {
          "internalType": "address",
          "name": "_to",
          "type": "address"
        },
        {
          "internalType": "uint256",
          "name": "tokenId",
          "type": "uint256"
        }
      ],
      "name": "approve",
      "outputs": [],
      "stateMutability": "nonpayable",
      "type": "function"
    },
    {
      "inputs": [
        {
          "internalType": "address",
          "name": "_owner",
          "type": "address"
        }
      ],
      "name": "balanceOf",
      "outputs": [
        {
          "internalType": "uint256",
          "name": "",
          "type": "uint256"
        }
      ],
      "stateMutability": "view",
      "type": "function"
    },
    {
      "inputs": [],
      "name": "name",
      "outputs": [
        {
          "internalType": "string",
          "name": "",
          "type": "string"
        }
      ],
      "stateMutability": "view",
      "type": "function"
    },
    {
      "inputs": [
        {
          "internalType": "uint256",
          "name": "_tokenId",
          "type": "uint256"
        }
      ],
      "name": "ownerOf",
      "outputs": [
        {
          "internalType": "address",
          "name": "",
          "type": "address"
        }
      ],
      "stateMutability": "view",
      "type": "function"
    },
    {
      "inputs": [
        {
          "internalType": "bytes4",
          "name": "interfaceID",
          "type": "bytes4"
        }
      ],
      "name": "supportsInterface",
      "outputs": [
        {
          "internalType": "bool",
          "name": "",
          "type": "bool"
        }
      ],
      "stateMutability": "view",
      "type": "function"
    },
    {
      "inputs": [],
      "name": "symbol",
      "outputs": [
        {
          "internalType": "string",
          "name": "",
          "type": "string"
        }
      ],
      "stateMutability": "view",
      "type": "function"
    },
    {
      "inputs": [
        {
          "internalType": "uint256",
          "name": "index",
          "type": "uint256"
        }
      ],
      "name": "tokenByIndex",
      "outputs": [
        {
          "internalType": "uint256",
          "name": "",
          "type": "uint256"
        }
      ],
      "stateMutability": "view",
      "type": "function"
    },
    {
      "inputs": [
        {
          "internalType": "address",
          "name": "owner",
          "type": "address"
        },
        {
          "internalType": "uint256",
          "name": "index",
          "type": "uint256"
        }
      ],
      "name": "tokenOfOwnerByIndex",
      "outputs": [
        {
          "internalType": "uint256",
          "name": "",
          "type": "uint256"
        }
      ],
      "stateMutability": "view",
      "type": "function"
    },
    {
      "inputs": [],
      "name": "totalSupply",
      "outputs": [
        {
          "internalType": "uint256",
          "name": "",
          "type": "uint256"
        }
      ],
      "stateMutability": "view",
      "type": "function"
    },
    {
      "inputs": [
        {
          "internalType": "address",
          "name": "_from",
          "type": "address"
        },
        {
          "internalType": "address",
          "name": "_to",
          "type": "address"
        },
        {
          "internalType": "uint256",
          "name": "_tokenId",
          "type": "uint256"
        }
      ],
      "name": "transferFrom",
      "outputs": [],
      "stateMutability": "nonpayable",
      "type": "function"
    },
    {
      "inputs": [
        {
          "internalType": "string",
          "name": "_skulltown",
          "type": "string"
        }
      ],
      "name": "mint",
      "outputs": [],
      "stateMutability": "nonpayable",
      "type": "function"
    }
  ],
  "bytecode": "0x60806040523480156200001157600080fd5b506040518060400160405280600981526020017f536b756c6c746f776e00000000000000000000000000000000000000000000008152506040518060400160405280600581526020017f534b4c4c5400000000000000000000000000000000000000000000000000000081525081818160009081620000919190620004a6565b508060019081620000a39190620004a6565b505050620000d77f75e79be6cc7b0fa1c9ef93c49173e275135de3af55610b234fd35ad9f20df3816200015460201b60201c565b6200014c7f0e60019febab7c17be95ca129aaa3424c3f52327a7b3badaff87fa2c48f39db67f3a6eb71757dfc6e784c1459d26270140c2c147d95ca985c80026fc5301c3eca17f78415365757d55d827df8780401941e841ac4a420bab5dc9e5dccaabfb7dea9818186200015460201b60201c565b505062000610565b63ffffffff60e01b817bffffffffffffffffffffffffffffffffffffffffffffffffffffffff191603620001bf576040517f08c379a0000000000000000000000000000000000000000000000000000000008152600401620001b690620005ee565b60405180910390fd5b600160026000837bffffffffffffffffffffffffffffffffffffffffffffffffffffffff19167bffffffffffffffffffffffffffffffffffffffffffffffffffffffff1916815260200190815260200160002060006101000a81548160ff02191690831515021790555050565b600081519050919050565b7f4e487b7100000000000000000000000000000000000000000000000000000000600052604160045260246000fd5b7f4e487b7100000000000000000000000000000000000000000000000000000000600052602260045260246000fd5b60006002820490506001821680620002ae57607f821691505b602082108103620002c457620002c362000266565b5b50919050565b60008190508160005260206000209050919050565b60006020601f8301049050919050565b600082821b905092915050565b6000600883026200032e7fffffffffffffffffffffffffffffffffffffffffffffffffffffffffffffffff82620002ef565b6200033a8683620002ef565b95508019841693508086168417925050509392505050565b6000819050919050565b6000819050919050565b600062000387620003816200037b8462000352565b6200035c565b62000352565b9050919050565b6000819050919050565b620003a38362000366565b620003bb620003b2826200038e565b848454620002fc565b825550505050565b600090565b620003d2620003c3565b620003df81848462000398565b505050565b5b818110156200040757620003fb600082620003c8565b600181019050620003e5565b5050565b601f82111562000456576200042081620002ca565b6200042b84620002df565b810160208510156200043b578190505b620004536200044a85620002df565b830182620003e4565b50505b505050565b600082821c905092915050565b60006200047b600019846008026200045b565b1980831691505092915050565b600062000496838362000468565b9150826002028217905092915050565b620004b1826200022c565b67ffffffffffffffff811115620004cd57620004cc62000237565b5b620004d9825462000295565b620004e68282856200040b565b600060209050601f8311600181146200051e576000841562000509578287015190505b62000515858262000488565b86555062000585565b601f1984166200052e86620002ca565b60005b82811015620005585784890151825560018201915060208501945060208101905062000531565b8683101562000578578489015162000574601f89168262000468565b8355505b6001600288020188555050505b505050505050565b600082825260208201905092915050565b7f496e76616c696420696e74657266616365207265717565737400000000000000600082015250565b6000620005d66019836200058d565b9150620005e3826200059e565b602082019050919050565b600060208201905081810360008301526200060981620005c7565b9050919050565b611ee680620006206000396000f3fe608060405234801561001057600080fd5b50600436106100b45760003560e01c80634f6ccce7116100715780634f6ccce71461018d5780636352211e146101bd57806370a08231146101ed57806395d89b411461021d578063c962879b1461023b578063d85d3d271461026b576100b4565b806301ffc9a7146100b957806306fdde03146100e9578063095ea7b31461010757806318160ddd1461012357806323b872dd146101415780632f745c591461015d575b600080fd5b6100d360048036038101906100ce9190611136565b610287565b6040516100e0919061117e565b60405180910390f35b6100f16102ef565b6040516100fe9190611232565b60405180910390f35b610121600480360381019061011c91906112e8565b610381565b005b61012b61051c565b6040516101389190611337565b60405180910390f35b61015b60048036038101906101569190611352565b610529565b005b610177600480360381019061017291906112e8565b61054c565b6040516101849190611337565b60405180910390f35b6101a760048036038101906101a291906113a5565b6105fc565b6040516101b49190611337565b60405180910390f35b6101d760048036038101906101d291906113a5565b61066d565b6040516101e491906113e1565b60405180910390f35b610207600480360381019061020291906113fc565b61071e565b6040516102149190611337565b60405180910390f35b6102256107dc565b6040516102329190611232565b60405180910390f35b610255600480360381019061025091906113a5565b61086e565b6040516102629190611232565b60405180910390f35b6102856004803603810190610280919061155e565b61091a565b005b600060026000837bffffffffffffffffffffffffffffffffffffffffffffffffffffffff19167bffffffffffffffffffffffffffffffffffffffffffffffffffffffff1916815260200190815260200160002060009054906101000a900460ff169050919050565b6060600080546102fe906115d6565b80601f016020809104026020016040519081016040528092919081815260200182805461032a906115d6565b80156103775780601f1061034c57610100808354040283529160200191610377565b820191906000526020600020905b81548152906001019060200180831161035a57829003601f168201915b5050505050905090565b600061038c8261066d565b90508073ffffffffffffffffffffffffffffffffffffffff168373ffffffffffffffffffffffffffffffffffffffff16036103fc576040517f08c379a00000000000000000000000000000000000000000000000000000000081526004016103f390611679565b60405180910390fd5b8073ffffffffffffffffffffffffffffffffffffffff163373ffffffffffffffffffffffffffffffffffffffff161461046a576040517f08c379a0000000000000000000000000000000000000000000000000000000008152600401610461906116e5565b60405180910390fd5b826005600084815260200190815260200160002060006101000a81548173ffffffffffffffffffffffffffffffffffffffff021916908373ffffffffffffffffffffffffffffffffffffffff160217905550818373ffffffffffffffffffffffffffffffffffffffff168273ffffffffffffffffffffffffffffffffffffffff167f8c5be1e5ebec7d5bd14f71427d1e84f3dd0314c0f7b2291e5b200ac8c7c3b92560405160405180910390a4505050565b6000600680549050905090565b6105333382610a16565b61053c57600080fd5b610547838383610aa5565b505050565b60006105578361071e565b8210610598576040517f08c379a000000000000000000000000000000000000000000000000000000000815260040161058f90611751565b60405180910390fd5b600860008473ffffffffffffffffffffffffffffffffffffffff1673ffffffffffffffffffffffffffffffffffffffff16815260200190815260200160002082815481106105e9576105e8611771565b5b9060005260206000200154905092915050565b600061060661051c565b8210610647576040517f08c379a000000000000000000000000000000000000000000000000000000000815260040161063e906117ec565b60405180910390fd5b6006828154811061065b5761065a611771565b5b90600052602060002001549050919050565b6000806003600084815260200190815260200160002060009054906101000a900473ffffffffffffffffffffffffffffffffffffffff169050600073ffffffffffffffffffffffffffffffffffffffff168173ffffffffffffffffffffffffffffffffffffffff1603610715576040517f08c379a000000000000000000000000000000000000000000000000000000000815260040161070c90611858565b60405180910390fd5b80915050919050565b60008073ffffffffffffffffffffffffffffffffffffffff168273ffffffffffffffffffffffffffffffffffffffff160361078e576040517f08c379a000000000000000000000000000000000000000000000000000000000815260040161078590611858565b60405180910390fd5b6107d5600460008473ffffffffffffffffffffffffffffffffffffffff1673ffffffffffffffffffffffffffffffffffffffff168152602001908152602001600020610cca565b9050919050565b6060600180546107eb906115d6565b80601f0160208091040260200160405190810160405280929190818152602001828054610817906115d6565b80156108645780601f1061083957610100808354040283529160200191610864565b820191906000526020600020905b81548152906001019060200180831161084757829003601f168201915b5050505050905090565b600a818154811061087e57600080fd5b906000526020600020016000915090508054610899906115d6565b80601f01602080910402602001604051908101604052809291908181526020018280546108c5906115d6565b80156109125780601f106108e757610100808354040283529160200191610912565b820191906000526020600020905b8154815290600101906020018083116108f557829003601f168201915b505050505081565b600b8160405161092a91906118b4565b908152602001604051809103902060009054906101000a900460ff1615610986576040517f08c379a000000000000000000000000000000000000000000000000000000000815260040161097d90611917565b60405180910390fd5b600a819080600181540180825580915050600190039060005260206000200160009091909190915090816109ba9190611ae3565b5060006001600a805490506109cf9190611be4565b90506109db3382610cd8565b6001600b836040516109ed91906118b4565b908152602001604051809103902060006101000a81548160ff0219169083151502179055505050565b6000610a2182610cf9565b610a60576040517f08c379a0000000000000000000000000000000000000000000000000000000008152600401610a5790611c64565b60405180910390fd5b6000610a6b8361066d565b90508073ffffffffffffffffffffffffffffffffffffffff168473ffffffffffffffffffffffffffffffffffffffff161491505092915050565b600073ffffffffffffffffffffffffffffffffffffffff168273ffffffffffffffffffffffffffffffffffffffff1603610b14576040517f08c379a0000000000000000000000000000000000000000000000000000000008152600401610b0b90611679565b60405180910390fd5b8273ffffffffffffffffffffffffffffffffffffffff16610b348261066d565b73ffffffffffffffffffffffffffffffffffffffff1614610b8a576040517f08c379a0000000000000000000000000000000000000000000000000000000008152600401610b8190611cf6565b60405180910390fd5b610bd1600460008573ffffffffffffffffffffffffffffffffffffffff1673ffffffffffffffffffffffffffffffffffffffff168152602001908152602001600020610d6b565b610c18600460008473ffffffffffffffffffffffffffffffffffffffff1673ffffffffffffffffffffffffffffffffffffffff168152602001908152602001600020610d8e565b816003600083815260200190815260200160002060006101000a81548173ffffffffffffffffffffffffffffffffffffffff021916908373ffffffffffffffffffffffffffffffffffffffff160217905550808273ffffffffffffffffffffffffffffffffffffffff168473ffffffffffffffffffffffffffffffffffffffff167fddf252ad1be2c89b69c2b068fc378daa952ba7f163c4a11628f55a4df523b3ef60405160405180910390a4505050565b600081600001549050919050565b610ce28282610dad565b610cec8282610f5e565b610cf581611022565b5050565b6000806003600084815260200190815260200160002060009054906101000a900473ffffffffffffffffffffffffffffffffffffffff169050600073ffffffffffffffffffffffffffffffffffffffff168173ffffffffffffffffffffffffffffffffffffffff161415915050919050565b610d836001826000015461106b90919063ffffffff16565b816000018190555050565b6001816000016000828254610da39190611d16565b9250508190555050565b600073ffffffffffffffffffffffffffffffffffffffff168273ffffffffffffffffffffffffffffffffffffffff1603610e1c576040517f08c379a0000000000000000000000000000000000000000000000000000000008152600401610e1390611db8565b60405180910390fd5b610e2581610cf9565b15610e65576040517f08c379a0000000000000000000000000000000000000000000000000000000008152600401610e5c90611e24565b60405180910390fd5b816003600083815260200190815260200160002060006101000a81548173ffffffffffffffffffffffffffffffffffffffff021916908373ffffffffffffffffffffffffffffffffffffffff160217905550610efe600460008473ffffffffffffffffffffffffffffffffffffffff1673ffffffffffffffffffffffffffffffffffffffff168152602001908152602001600020610d8e565b808273ffffffffffffffffffffffffffffffffffffffff16600073ffffffffffffffffffffffffffffffffffffffff167fddf252ad1be2c89b69c2b068fc378daa952ba7f163c4a11628f55a4df523b3ef60405160405180910390a45050565b600860008373ffffffffffffffffffffffffffffffffffffffff1673ffffffffffffffffffffffffffffffffffffffff168152602001908152602001600020805490506009600083815260200190815260200160002081905550600860008373ffffffffffffffffffffffffffffffffffffffff1673ffffffffffffffffffffffffffffffffffffffff1681526020019081526020016000208190806001815401808255809150506001900390600052602060002001600090919091909150555050565b6006805490506007600083815260200190815260200160002081905550600681908060018154018082558091505060019003906000526020600020016000909190919091505550565b6000828211156110b0576040517f08c379a00000000000000000000000000000000000000000000000000000000081526004016110a790611e90565b60405180910390fd5b600082846110be9190611be4565b90508091505092915050565b6000604051905090565b600080fd5b600080fd5b60007fffffffff0000000000000000000000000000000000000000000000000000000082169050919050565b611113816110de565b811461111e57600080fd5b50565b6000813590506111308161110a565b92915050565b60006020828403121561114c5761114b6110d4565b5b600061115a84828501611121565b91505092915050565b60008115159050919050565b61117881611163565b82525050565b6000602082019050611193600083018461116f565b92915050565b600081519050919050565b600082825260208201905092915050565b60005b838110156111d35780820151818401526020810190506111b8565b838111156111e2576000848401525b50505050565b6000601f19601f8301169050919050565b600061120482611199565b61120e81856111a4565b935061121e8185602086016111b5565b611227816111e8565b840191505092915050565b6000602082019050818103600083015261124c81846111f9565b905092915050565b600073ffffffffffffffffffffffffffffffffffffffff82169050919050565b600061127f82611254565b9050919050565b61128f81611274565b811461129a57600080fd5b50565b6000813590506112ac81611286565b92915050565b6000819050919050565b6112c5816112b2565b81146112d057600080fd5b50565b6000813590506112e2816112bc565b92915050565b600080604083850312156112ff576112fe6110d4565b5b600061130d8582860161129d565b925050602061131e858286016112d3565b9150509250929050565b611331816112b2565b82525050565b600060208201905061134c6000830184611328565b92915050565b60008060006060848603121561136b5761136a6110d4565b5b60006113798682870161129d565b935050602061138a8682870161129d565b925050604061139b868287016112d3565b9150509250925092565b6000602082840312156113bb576113ba6110d4565b5b60006113c9848285016112d3565b91505092915050565b6113db81611274565b82525050565b60006020820190506113f660008301846113d2565b92915050565b600060208284031215611412576114116110d4565b5b60006114208482850161129d565b91505092915050565b600080fd5b600080fd5b7f4e487b7100000000000000000000000000000000000000000000000000000000600052604160045260246000fd5b61146b826111e8565b810181811067ffffffffffffffff8211171561148a57611489611433565b5b80604052505050565b600061149d6110ca565b90506114a98282611462565b919050565b600067ffffffffffffffff8211156114c9576114c8611433565b5b6114d2826111e8565b9050602081019050919050565b82818337600083830152505050565b60006115016114fc846114ae565b611493565b90508281526020810184848401111561151d5761151c61142e565b5b6115288482856114df565b509392505050565b600082601f83011261154557611544611429565b5b81356115558482602086016114ee565b91505092915050565b600060208284031215611574576115736110d4565b5b600082013567ffffffffffffffff811115611592576115916110d9565b5b61159e84828501611530565b91505092915050565b7f4e487b7100000000000000000000000000000000000000000000000000000000600052602260045260246000fd5b600060028204905060018216806115ee57607f821691505b602082108103611601576116006115a7565b5b50919050565b7f4572726f72202d20617070726f76616c20746f2063757272656e74206f776e6560008201527f7200000000000000000000000000000000000000000000000000000000000000602082015250565b60006116636021836111a4565b915061166e82611607565b604082019050919050565b6000602082019050818103600083015261169281611656565b9050919050565b7f43757272656e742063616c6c6572206d757374206265206f776e657200000000600082015250565b60006116cf601c836111a4565b91506116da82611699565b602082019050919050565b600060208201905081810360008301526116fe816116c2565b9050919050565b7f4f776e657220696e646578206f7574206f6620626f756e640000000000000000600082015250565b600061173b6018836111a4565b915061174682611705565b602082019050919050565b6000602082019050818103600083015261176a8161172e565b9050919050565b7f4e487b7100000000000000000000000000000000000000000000000000000000600052603260045260246000fd5b7f476c6f62616c20696e646578206f7574206f6620626f756e6400000000000000600082015250565b60006117d66019836111a4565b91506117e1826117a0565b602082019050919050565b60006020820190508181036000830152611805816117c9565b9050919050565b7f41646472657373206973207a65726f0000000000000000000000000000000000600082015250565b6000611842600f836111a4565b915061184d8261180c565b602082019050919050565b6000602082019050818103600083015261187181611835565b9050919050565b600081905092915050565b600061188e82611199565b6118988185611878565b93506118a88185602086016111b5565b80840191505092915050565b60006118c08284611883565b915081905092915050565b7f4572726f72202d20746f6b656e20616c72656164792065786973747300000000600082015250565b6000611901601c836111a4565b915061190c826118cb565b602082019050919050565b60006020820190508181036000830152611930816118f4565b9050919050565b60008190508160005260206000209050919050565b60006020601f8301049050919050565b600082821b905092915050565b6000600883026119997fffffffffffffffffffffffffffffffffffffffffffffffffffffffffffffffff8261195c565b6119a3868361195c565b95508019841693508086168417925050509392505050565b6000819050919050565b60006119e06119db6119d6846112b2565b6119bb565b6112b2565b9050919050565b6000819050919050565b6119fa836119c5565b611a0e611a06826119e7565b848454611969565b825550505050565b600090565b611a23611a16565b611a2e8184846119f1565b505050565b5b81811015611a5257611a47600082611a1b565b600181019050611a34565b5050565b601f821115611a9757611a6881611937565b611a718461194c565b81016020851015611a80578190505b611a94611a8c8561194c565b830182611a33565b50505b505050565b600082821c905092915050565b6000611aba60001984600802611a9c565b1980831691505092915050565b6000611ad38383611aa9565b9150826002028217905092915050565b611aec82611199565b67ffffffffffffffff811115611b0557611b04611433565b5b611b0f82546115d6565b611b1a828285611a56565b600060209050601f831160018114611b4d5760008415611b3b578287015190505b611b458582611ac7565b865550611bad565b601f198416611b5b86611937565b60005b82811015611b8357848901518255600182019150602085019450602081019050611b5e565b86831015611ba05784890151611b9c601f891682611aa9565b8355505b6001600288020188555050505b505050505050565b7f4e487b7100000000000000000000000000000000000000000000000000000000600052601160045260246000fd5b6000611bef826112b2565b9150611bfa836112b2565b925082821015611c0d57611c0c611bb5565b5b828203905092915050565b7f746f6b656e20646f6573206e6f74206578697374000000000000000000000000600082015250565b6000611c4e6014836111a4565b9150611c5982611c18565b602082019050919050565b60006020820190508181036000830152611c7d81611c41565b9050919050565b7f547279696e6720746f207472616e73666572206120746f6b656e20746f20616e60008201527f2061646472657373206469666572656e7420746f206f776e6572000000000000602082015250565b6000611ce0603a836111a4565b9150611ceb82611c84565b604082019050919050565b60006020820190508181036000830152611d0f81611cd3565b9050919050565b6000611d21826112b2565b9150611d2c836112b2565b9250827fffffffffffffffffffffffffffffffffffffffffffffffffffffffffffffffff03821115611d6157611d60611bb5565b5b828201905092915050565b7f455243373231206d696e74696e6720746f207a65726f20616464726573730000600082015250565b6000611da2601e836111a4565b9150611dad82611d6c565b602082019050919050565b60006020820190508181036000830152611dd181611d95565b9050919050565b7f45524337323120616c7265616479206578697374730000000000000000000000600082015250565b6000611e0e6015836111a4565b9150611e1982611dd8565b602082019050919050565b60006020820190508181036000830152611e3d81611e01565b9050919050565b7f536166654d61746820737562737472616374696f6e206f766572666c6f770000600082015250565b6000611e7a601e836111a4565b9150611e8582611e44565b602082019050919050565b60006020820190508181036000830152611ea981611e6d565b905091905056fea2646970667358221220d7dea6a7f5daea47ed94054cd45aa06ada193ff98da3818bda854d93a76a0f8064736f6c634300080f0033",
  "immutableReferences": {},
  "source": "// SPDX-License-Identifier: MIT\n\npragma solidity ^0.8.15;\nimport './ERC721Connector.sol';\n\ncontract Skulltown is ERC721Connector {\n\n    //matriz para guardar nuestros nfts\n    string[] public SkulltownNFTS;\n\n    mapping(string => bool) _skulltownNFTExists; \n\n    function mint(string memory _skulltown) public {\n\n        require(!_skulltownNFTExists[_skulltown], 'Error - token already exists');\n\n        SkulltownNFTS.push(_skulltown);\n        uint _id = SkulltownNFTS.length -1;\n\n        _mint(msg.sender, _id);\n\n        _skulltownNFTExists[_skulltown] = true;\n    }\n\n\n    constructor() ERC721Connector('Skulltown', 'SKLLT') {}\n}",
  "sourcePath": "/Users/madssimo/Documents/nft-marketplace/skulltown/src/contracts/Skulltown.sol",
  "compiler": {
    "name": "solc",
    "version": "0.8.15+commit.e14f2714.Emscripten.clang"
  },
  "schemaVersion": "3.4.7",
  "updatedAt": "2022-09-06T01:14:08.246Z",
  "devdoc": {
    "kind": "dev",
    "methods": {},
    "version": 1
  },
  "userdoc": {
    "kind": "user",
    "methods": {},
    "version": 1
  }
}